:020000040800F2
:1000000000500020890C0008250C00082D0C000869
:10001000350C00083D0C0008450C000800000000ED
:100020000000000000000000000000004D0C00086F
:10003000590C000800000000650C0008710C000855
:10004000D10C0008D10C0008D10C0008D10C00081C
:10005000D10C0008D10C0008D10C0008D10C00080C
:10006000D10C0008D10C0008D10C0008D10C0008FC
:10007000D10C0008D10C0008D10C0008D10C0008EC
:10008000D10C0008D10C0008D10C0008D10C0008DC
:10009000D10C0008D10C0008D10C0008D10C0008CC
:1000A000D10C0008D10C0008D10C0008D10C0008BC
:1000B000D10C0008D10C0008D10C0008D10C0008AC
:1000C000D10C0008D10C0008D10C0008D10C00089C
:1000D000D10C0008D10C0008D10C0008D10C00088C
:1000E000D10C0008D10C0008D10C00080000000061
:1000F0000000000000000000000000000000000000
:0C01000000000000000000005FF808F1A3
:10010C0010B5054C237833B9044B13B10448AFF345
:10011C0000800123237010BD0C00002000000000A3
:10012C000018000808B5034B1BB103490348AFF393
:10013C00008008BD0000000010000020001800081E
:10014C0081F0004102E000BF83F0004330B54FEA7C
:10015C0041044FEA430594EA050F08BF90EA020FE9
:10016C001FBF54EA000C55EA020C7FEA645C7FEA7C
:10017C00655C00F0E2804FEA5454D4EB5555B8BF9F
:10018C006D420CDD2C4480EA020281EA030382EA10
:10019C00000083EA010180EA020281EA0303362DA2
:1001AC0088BF30BD11F0004F4FEA01314FF4801C75
:1001BC004CEA113102D0404261EB410113F0004F87
:1001CC004FEA03334CEA133302D0524263EB43033E
:1001DC0094EA050F00F0A780A4F10104D5F1200EDC
:1001EC000DDB02FA0EFC22FA05F2801841F1000137
:1001FC0003FA0EF2801843FA05F359410EE0A5F10B
:10020C0020050EF1200E012A03FA0EFC28BF4CF03B
:10021C00020C43FA05F3C01851EBE37101F00045F1
:10022C0007D54FF0000EDCF1000C7EEB00006EEBFE
:10023C000101B1F5801F1BD3B1F5001F0CD3490888
:10024C005FEA30004FEA3C0C04F101044FEA4452DF
:10025C0012F5800F80F09A80BCF1004F08BF5FEA66
:10026C00500C50F1000041EB045141EA050130BD46
:10027C005FEA4C0C404141EB0101013C28BFB1F558
:10028C00801FE9D291F0000F04BF01460020B1FAA3
:10029C0081F308BF2033A3F10B03B3F120020CDA76
:1002AC000C3208DD02F1140CC2F10C0201FA0CF054
:1002BC0021FA02F10CE002F11402D8BFC2F1200CB9
:1002CC0001FA02F120FA0CFCDCBF41EA0C0190406F
:1002DC00E41AA2BF01EB0451294330BD6FEA0404B8
:1002EC001F3C1CDA0C340EDC04F11404C4F12002A3
:1002FC0020FA04F001FA02F340EA030021FA04F3B5
:10030C0045EA030130BDC4F10C04C4F1200220FA0B
:10031C0002F001FA04F340EA0300294630BD21FA49
:10032C0004F0294630BD94F0000F83F4801306BF0F
:10033C0081F480110134013D4EE77FEA645C18BF03
:10034C007FEA655C29D094EA050F08BF90EA020F9A
:10035C0005D054EA000C04BF1946104630BD91EA92
:10036C00030F1EBF0021002030BD5FEA545C05D195
:10037C004000494128BF41F0004130BD14F58004D4
:10038C003CBF01F5801130BD01F0004545F0FE4148
:10039C0041F470014FF0000030BD7FEA645C1ABF7D
:1003AC00194610467FEA655C1CBF0B46024650EAB4
:1003BC00013406BF52EA033591EA030F41F40021E0
:1003CC0030BD00BF90F0000F04BF0021704730B566
:1003DC004FF4806404F132044FF000054FF000013B
:1003EC0050E700BF90F0000F04BF0021704730B5FC
:1003FC004FF4806404F1320410F0004548BF4042D1
:10040C004FF000013EE700BF42004FEAE2014FEA25
:10041C0031014FEA02701FBF12F07F4393F07F4F00
:10042C0081F06051704732F07F4208BF704793F003
:10043C007F4F04BF41F40021704730B54FF4607416
:10044C0001F0004521F000411CE700BF50EA010219
:10045C0008BF704730B54FF000050AE050EA0102C2
:10046C0008BF704730B511F0004502D5404261EB32
:10047C0041014FF4806404F132045FEA915C3FF473
:10048C00D8AE4FF003025FEADC0C18BF03325FEA10
:10049C00DC0C18BF033202EBDC02C2F1200300FAC1
:1004AC0003FC20FA02F001FA03FE40EA0E0021FAE6
:1004BC0002F11444BDE600BF4A0011D212F500123D
:1004CC0011D20DD56FF47873B3EB62520ED44FEAA0
:1004DC00C12343F0004343EA505323FA02F0704720
:1004EC004FF00000704750EA013002D14FF0FF305E
:1004FC0070474FF00000704780F0004002E000BFF2
:10050C0081F0004142001FBF5FEA410392EA030FF2
:10051C007FEA226C7FEA236C6AD04FEA1262D2EB3C
:10052C001363C1BFD218414048404140B8BF5B4241
:10053C00192B88BF704710F0004F40F4000020F0DA
:10054C007F4018BF404211F0004F41F4000121F0F0
:10055C007F4118BF494292EA030F3FD0A2F101023A
:10056C0041FA03FC10EB0C00C3F1200301FA03F178
:10057C0000F0004302D5494260EB4000B0F5000F9B
:10058C0013D3B0F1807F06D340084FEA310102F15A
:10059C000102FE2A51D2B1F1004F40EBC25008BF0C
:1005AC0020F0010040EA03007047490040EB0000D6
:1005BC00013A28BFB0F5000FEDD2B0FA80FCACF1D7
:1005CC00080CB2EB0C0200FA0CF0AABF00EBC25004
:1005DC0052421843BCBFD0401843704792F0000FF2
:1005EC0081F4000106BF80F400000132013BB5E745
:1005FC004FEA41037FEA226C18BF7FEA236C21D0BB
:10060C0092EA030F04D092F0000F08BF084670471F
:10061C0090EA010F1CBF0020704712F07F4F04D1ED
:10062C00400028BF40F00040704712F100723CBF00
:10063C0000F50000704700F0004343F0FE4040F42A
:10064C00000070477FEA226216BF08467FEA2363E8
:10065C000146420206BF5FEA412390EA010F40F4D3
:10066C00800070474FF0000304E000BF10F000431F
:10067C0048BF40425FEA000C08BF704743F0964306
:10068C0001464FF000001CE050EA010208BF704721
:10069C004FF000030AE000BF50EA010208BF7047A8
:1006AC0011F0004302D5404261EB41015FEA010CBD
:1006BC0002BF84460146002043F0B64308BFA3F1B5
:1006CC008053A3F50003BCFA8CF2083AA3EBC25397
:1006DC0010DB01FA02FC634400FA02FCC2F12002B6
:1006EC00BCF1004F20FA02F243EB020008BF20F0ED
:1006FC000100704702F1200201FA02FCC2F1200253
:10070C0050EA4C0021FA02F243EB020008BF20EA47
:10071C00DC7070474FF0FF0C1CEAD0521EBF1CEA75
:10072C00D15392EA0C0F93EA0C0F6FD01A4480EA63
:10073C00010C400218BF5FEA41211ED04FF000634C
:10074C0043EA501043EA5111A0FB01310CF0004078
:10075C00B1F5000F3EBF490041EAD3715B0040EA9E
:10076C00010062F17F02FD2A1DD8B3F1004F40EB6E
:10077C00C25008BF20F00100704790F0000F0CF041
:10078C00004C08BF49024CEA502040EA51207F3A05
:10079C00C2BFD2F1FF0340EAC250704740F40000E0
:1007AC004FF00003013A5DDC12F1190FDCBF00F0D1
:1007BC0000407047C2F10002410021FA02F1C2F17F
:1007CC00200200FA02FC5FEA310040F1000053EA1B
:1007DC004C0308BF20EADC70704792F0000F00F069
:1007EC00004C02BF400010F4000F013AF9D040EA6F
:1007FC000C0093F0000F01F0004C02BF490011F403
:10080C00000F013BF9D041EA0C018FE70CEAD15300
:10081C0092EA0C0F18BF93EA0C0F0AD030F0004C80
:10082C0018BF31F0004CD8D180EA010000F0004034
:10083C00704790F0000F17BF90F0004F084691F0F2
:10084C00000F91F0004F14D092EA0C0F01D142022C
:10085C000FD193EA0C0F03D14B0218BF084608D1F5
:10086C0080EA010000F0004040F0FE4040F400003F
:10087C00704740F0FE4040F4400070474FF0FF0CD2
:10088C001CEAD0521EBF1CEAD15392EA0C0F93EA19
:10089C000C0F69D0A2EB030280EA010C49024FEA6B
:1008AC00402037D04FF0805343EA111143EA101324
:1008BC000CF000408B4238BF5B0042F17D024FF4DC
:1008CC00000C8B4224BF5B1A40EA0C00B3EB510FB7
:1008DC0024BFA3EB510340EA5C00B3EB910F24BFA0
:1008EC00A3EB910340EA9C00B3EBD10F24BFA3EB25
:1008FC00D10340EADC001B0118BF5FEA1C1CE0D1ED
:10090C00FD2A3FF650AF8B4240EBC25008BF20F09F
:10091C00010070470CF0004C4CEA50207F32C2BFF3
:10092C00D2F1FF0340EAC250704740F400004FF090
:10093C000003013A37E792F0000F00F0004C02BFC1
:10094C00400010F4000F013AF9D040EA0C0093F08B
:10095C00000F01F0004C02BF490011F4000F013BE5
:10096C00F9D041EA0C0195E70CEAD15392EA0C0F4D
:10097C0008D142027FF47DAF93EA0C0F7FF470AF85
:10098C00084676E793EA0C0F04D14B023FF44CAFC8
:10099C0008466EE730F0004C18BF31F0004CCAD15D
:1009AC0030F000427FF45CAF31F000437FF43CAF99
:1009BC005FE700BF42000ED2B2F1FE4F0BD34FF0F7
:1009CC009E03B3EB126209D44FEA002343F00043B9
:1009DC0023FA02F070474FF00000704712F1610FDC
:1009EC0001D1420202D14FF0FF3070474FF00000AE
:1009FC00704700BF80B400AF0D4B9B690C4A43F4A9
:100A0C00804393610A4B9B69094A43F00403936149
:100A1C00084B5B68074A43F0A0035360054B5B68C7
:100A2C00044A43F40063536000BFBD4680BC70476A
:100A3C00001002400008014080B500AF10214FF4B7
:100A4C00165000F029F80246074B9B6806491343E1
:100A5C008B60054BDB68044A43F4005343F00C03F2
:100A6C00D36000BF80BD00BF0038014080B483B0AC
:100A7C0000AF0346FB7100BF064B1B6803F08003FD
:100A8C00002BF9D0034AFB79536000BF0C37BD46ED
:100A9C0080BC70470038014090B587B000AF7860DB
:100AAC003960234B1B681846FFF7DCFD04467B6856
:100ABC003A6802FB03F31846FFF7D4FD03461946C8
:100ACC002046FFF7DBFE03467B617869FFF772FF78
:100ADC0003463B613869FFF7C5FD03461946786943
:100AEC00FFF70EFD03461C463868FFF7BBFD0346B7
:100AFC0019462046FFF70EFE03461846FFF784FC06
:100B0C0002460B461046194600F02EFE02460B46D6
:100B1C0010461946FFF7D0FC0346FB603B691A01EF
:100B2C00FB6803F00F03134318461C37BD4690BDFA
:100B3C000000002080B500AF00F0C6F8FFF75AFFA8
:100B4C00FFF77AFF00F004F86B20FFF78FFFFBE74D
:100B5C0080B590B000AF07F1180328220021184689
:100B6C0000F0D6FD3B1D00221A605A609A60DA60D4
:100B7C001A610223BB610123BB621023FB620023B9
:100B8C007B6307F11803184600F0E4F90346002BC9
:100B9C0001D000F018F80F237B600023BB6000230A
:100BAC00FB6000233B6100237B613B1D0021184649
:100BBC0000F052FC0346002B01D000F004F800BFFB
:100BCC004037BD4680BD80B400AF72B600BF00BFD9
:100BDC00FDE7000080B483B000AF0E4B9B690D4A5B
:100BEC0043F0010393610B4B9B6903F001037B60A2
:100BFC007B68084BDB69074A43F08053D361054B94
:100C0C00DB6903F080533B603B6800BF0C37BD468B
:100C1C0080BC70470010024080B400AF00BFFDE7FD
:100C2C0080B400AF00BFFDE780B400AF00BFFDE7AC
:100C3C0080B400AF00BFFDE780B400AF00BFFDE79C
:100C4C0080B400AF00BFBD4680BC704780B400AF1D
:100C5C0000BFBD4680BC704780B400AF00BFBD462E
:100C6C0080BC704780B500AF00F074F800BF80BD49
:100C7C0080B400AF00BFBD4680BC7047FFF7F8FFE3
:100C8C000B480C490C4A002302E0D458C4500433DE
:100C9C00C4188C42F9D3094A094C002301E01360B3
:100CAC000432A242FBD300F03BFDFFF743FF704739
:100CBC00000000200C000020441800080C0000204C
:100CCC002C000020FEE7000080B500AF084B1B682D
:100CDC00074A43F010031360032000F007F90F20BC
:100CEC0000F008F8FFF776FF0023184680BD00BF20
:100CFC000020024080B582B000AF7860124B1A68B9
:100D0C00124B1B7819464FF47A73B3FBF1F3B2FB19
:100D1C00F3F3184600F011F90346002B01D0012320
:100D2C000EE07B680F2B0AD8002279684FF0FF3059
:100D3C0000F0E7F8064A7B681360002300E001230B
:100D4C0018460837BD4680BD000000200800002072
:100D5C000400002080B400AF054B1B781A46054BED
:100D6C001B681344034A136000BFBD4680BC704728
:100D7C00080000202800002080B400AF024B1B6844
:100D8C001846BD4680BC70472800002080B485B052
:100D9C0000AF78607B6803F00703FB600C4BDB68EB
:100DAC00BB60BA684FF6FF031340BB60FB681A02C6
:100DBC00BB68134343F0BF6343F40033BB60044A86
:100DCC00BB68D36000BF1437BD4680BC704700BF02
:100DDC0000ED00E080B400AF044BDB681B0A03F0AD
:100DEC0007031846BD4680BC704700BF00ED00E00D
:100DFC0080B483B000AF03463960FB7197F90730BC
:100E0C00002B0ADB3B68DAB20C4997F90730120168
:100E1C00D2B20B4483F800230AE03B68DAB20849EB
:100E2C00FB7903F00F03043B1201D2B20B441A7688
:100E3C0000BF0C37BD4680BC704700BF00E100E02E
:100E4C0000ED00E080B489B000AFF860B9607A6062
:100E5C00FB6803F00703FB61FB69C3F10703042B79
:100E6C0028BF0423BB61FB690433062B02D9FB6941
:100E7C00033B00E000237B614FF0FF32BB6902FAB9
:100E8C0003F3DA43BB681A407B699A404FF0FF3199
:100E9C007B6901FA03F3D9437B680B401343184673
:100EAC002437BD4680BC704780B582B000AF7860F7
:100EBC007B68013BB3F1807F01D301230FE00A4A29
:100ECC007B68013B53600F214FF0FF30FFF790FF21
:100EDC00054B00229A60044B07221A600023184627
:100EEC000837BD4680BD00BF10E000E080B582B081
:100EFC0000AF78607868FFF749FF00BF0837BD4640
:100F0C0080BD80B586B000AF0346B9607A60FB73D4
:100F1C0000237B61FFF75EFF78617A68B9687869B6
:100F2C00FFF790FF024697F90F3011461846FFF76E
:100F3C005FFF00BF1837BD4680BD80B582B000AFE3
:100F4C0078607868FFF7B0FF034618460837BD464F
:100F5C0080BD000080B586B000AF78607B68002B48
:100F6C0001D1012372E27B681B6803F00103002BA3
:100F7C0000F08780924B5B6803F00C03042B0CD0C1
:100F8C008F4B5B6803F00C03082B12D18C4B5B6806
:100F9C0003F48033B3F5803F0BD1894B1B6803F40A
:100FAC000033002B6CD07B685B68002B68D101236D
:100FBC004CE27B685B68B3F5803F06D1804B1B68C5
:100FCC007F4A43F4803313602EE07B685B68002B10
:100FDC000CD17B4B1B687A4A23F480331360784B1B
:100FEC001B68774A23F4802313601DE07B685B68E1
:100FFC00B3F5A02F0CD1724B1B68714A43F48023BC
:10100C0013606F4B1B686E4A43F4803313600BE024
:10101C006B4B1B686A4A23F480331360684B1B6864
:10102C00674A23F4802313607B685B68002B13D022
:10103C00FFF7A2FE386108E0FFF79EFE02463B690F
:10104C00D31A642B01D9032300E25D4B1B6803F414
:10105C000033002BF0D014E0FFF78EFE386108E06F
:10106C00FFF78AFE02463B69D31A642B01D903238E
:10107C00ECE1534B1B6803F40033002BF0D100E080
:10108C0000BF7B681B6803F00203002B63D04C4B42
:10109C005B6803F00C03002B0BD0494B5B6803F02F
:1010AC000C03082B1CD1464B5B6803F48033002BDC
:1010BC0016D1434B1B6803F00203002B05D07B6851
:1010CC001B69012B01D00123C0E13D4B1B6823F0B0
:1010DC00F8027B685B69DB00394913430B603AE02B
:1010EC007B681B69002B20D0364B01221A60FFF75E
:1010FC0043FE386108E0FFF73FFE02463B69D31A16
:10110C00022B01D90323A1E12D4B1B6803F0020331
:10111C00002BF0D02A4B1B6823F0F8027B685B692C
:10112C00DB00274913430B6015E0264B00221A60A5
:10113C00FFF722FE386108E0FFF71EFE02463B690E
:10114C00D31A022B01D9032380E11D4B1B6803F03A
:10115C000203002BF0D17B681B6803F00803002B03
:10116C003AD07B689B69002B19D0174B01221A606F
:10117C00FFF702FE386108E0FFF7FEFD02463B690F
:10118C00D31A022B01D9032360E10D4B5B6A03F0E8
:10119C000203002BF0D0012000F09CFA1CE00A4B5B
:1011AC0000221A60FFF7E8FD38610FE0FFF7E4FD5D
:1011BC0002463B69D31A022B08D9032346E100BF30
:1011CC00001002400000424280044242924B5B6A93
:1011DC0003F00203002BE9D17B681B6803F00403C6
:1011EC00002B00F0A6800023FB758B4BDB6903F012
:1011FC008053002B0DD1884BDB69874A43F0805319
:10120C00D361854BDB6903F08053BB60BB68012362
:10121C00FB75824B1B6803F48073002B18D17F4B3A
:10122C001B687E4A43F480731360FFF7A5FD386199
:10123C0008E0FFF7A1FD02463B69D31A642B01D9E4
:10124C00032303E1754B1B6803F48073002BF0D070
:10125C007B68DB68012B06D16F4B1B6A6E4A43F02F
:10126C00010313622DE07B68DB68002B0CD16A4B09
:10127C001B6A694A23F001031362674B1B6A664AB7
:10128C0023F0040313621CE07B68DB68052B0CD194
:10129C00614B1B6A604A43F0040313625E4B1B6A8A
:1012AC005D4A43F0010313620BE05B4B1B6A5A4A25
:1012BC0023F001031362584B1B6A574A23F00403B3
:1012CC0013627B68DB68002B15D0FFF755FD386186
:1012DC000AE0FFF751FD02463B69D31A41F288320E
:1012EC00934201D90323B1E04B4B1B6A03F0020379
:1012FC00002BEED014E0FFF73FFD38610AE0FFF75A
:10130C003BFD02463B69D31A41F28832934201D924
:10131C0003239BE0404B1B6A03F00203002BEED12E
:10132C00FB7D012B05D13C4BDB693B4A23F0805301
:10133C00D3617B68DB69002B00F08780364B5B68E0
:10134C0003F00C03082B61D07B68DB69022B46D1C0
:10135C00334B00221A60FFF70FFD386108E0FFF7EE
:10136C000BFD02463B69D31A022B01D903236DE016
:10137C00294B1B6803F00073002BF0D17B681B6AB0
:10138C00B3F5803F08D1244B5B6823F400327B68B3
:10139C009B68214913434B601F4B5B6823F4741209
:1013AC007B68196A7B685B6A0B431B4913434B6070
:1013BC001B4B01221A60FFF7DFFC386108E0FFF7D6
:1013CC00DBFC02463B69D31A022B01D903233DE017
:1013DC00114B1B6803F00073002BF0D035E0104B61
:1013EC0000221A60FFF7C8FC386108E0FFF7C4FC64
:1013FC0002463B69D31A022B01D9032326E0064B84
:10140C001B6803F00073002BF0D11EE07B68DB69D6
:10141C00012B07D1012319E000100240007000409D
:10142C00600042420B4B5B68FB60FB6803F480324C
:10143C007B681B6A9A4206D1FB6803F470127B68C6
:10144C005B6A9A4201D0012300E00023184618374A
:10145C00BD4680BD0010024080B584B000AF7860FE
:10146C0039607B68002B01D10123D0E06A4B1B68EB
:10147C0003F007033A689A4210D9674B1B6823F0B4
:10148C00070265493B6813430B60634B1B6803F011
:10149C0007033A689A4201D00123B8E07B681B68C5
:1014AC0003F00203002B20D07B681B6803F00403BD
:1014BC00002B05D0594B5B68584A43F4E0635360EA
:1014CC007B681B6803F00803002B05D0534B5B684B
:1014DC00524A43F460535360504B5B6823F0F00264
:1014EC007B689B684D4913434B607B681B6803F01A
:1014FC000103002B40D07B685B68012B07D1474B65
:10150C001B6803F40033002B15D101237FE07B68AB
:10151C005B68022B07D1414B1B6803F00073002B57
:10152C0009D1012373E03D4B1B6803F00203002B30
:10153C0001D101236BE0394B5B6823F003027B681C
:10154C005B68364913434B60FFF716FCF8600AE002
:10155C00FFF712FC0246FB68D31A41F28832934221
:10156C0001D9032353E02D4B5B6803F00C027B681D
:10157C005B689B009A42EBD1274B1B6803F0070377
:10158C003A689A4210D2244B1B6823F00702224976
:10159C003B6813430B60204B1B6803F007033A684E
:1015AC009A4201D0012332E07B681B6803F00403EC
:1015BC00002B08D0194B5B6823F4E0627B68DB6876
:1015CC00164913434B607B681B6803F00803002B20
:1015DC0009D0124B5B6823F460527B681B69DB00FB
:1015EC000E4913434B6000F021F802460B4B5B682D
:1015FC001B0903F00F030A49CB5C22FA03F3094AD7
:10160C001360094B1B681846FFF774FB0023184640
:10161C001037BD4680BD00BF0020024000100240C4
:10162C0018180008000000200400002080B487B0C7
:10163C0000AF0023FB600023BB6000237B61002311
:10164C007B6000233B611E4B5B68FB60FB6803F017
:10165C000C03042B02D0082B03D027E0194B3B6161
:10166C0027E0FB689B0C03F00F03174AD35C7B60ED
:10167C00FB6803F48033002B10D0114B5B685B0CC0
:10168C0003F00103114AD35CBB607B680D4A03FB7A
:10169C0002F2BB68B2FBF3F37B6104E07B680C4A9B
:1016AC0002FB03F37B617B693B6102E0054B3B6111
:1016BC0000BF3B6918461C37BD4680BC704700BF55
:1016CC000010024000127A00281800083818000890
:1016DC0000093D0080B485B000AF78600A4B1B68F0
:1016EC000A4AA2FB03235B0A7A6802FB03F3FB6042
:1016FC0000BFFB685A1EFA60002BF9D100BF00BF77
:10170C001437BD4680BC704700000020D34D6210DA
:10171C0003460244934200D1704703F8011BF9E7DA
:10172C0070B500260C4D0D4C641BA410A64209D1BB
:10173C0000F060F800260A4D0A4C641BA410A64267
:10174C0005D170BD55F8043B98470136EEE755F8C6
:10175C00043B98470136F2E73C1800083C18000897
:10176C003C18000840180008F8B5C1F30A57A7F256
:10177C00FF32132A04460D460B461ADC002A0BDAFC
:10178C0001F00043013204BF43F07F5343F4401394
:10179C0000221D46144616E0154810410140214315
:1017AC0011D04FF4002141FA02F2134423EA000352
:1017BC00EEE7332A0ADDB2F5806F04D10246FEF75C
:1017CC00C5FC04460D4620462946F8BD4FF0FF30B7
:1017DC00A7F21347F8402042F5D0C2F133010122A1
:1017EC008A40121928BF013322EA0002D1E700BF58
:1017FC00FFFF0F00F8B500BFF8BC08BC9E46704751
:0C180C00F8B500BFF8BC08BC9E46704751
:101818000000000000000000010203040607080998
:1018280002030405060708090A0B0C0D0E0F101019
:0418380001020000A9
:04183C00310100086E
:041840000D0100088E
:0C18440000127A001000000001000000FB
:0400000508000C895A
:00000001FF
